S011000068656C6C6F5F6176722E7372656357
S11300000C9458010C9475010C9475010C947501B1
S11300100C9475010C9475010C9475010C94750184
S11300200C9475010C9475010C9475010C94750174
S11300300C9475010C9475010C9475010C94750164
S11300400C9475010C9475010C9475010C94750154
S11300500C9475010C9475010C9475010C94750144
S11300600C9475010C9475010C9475010C94750134
S11300700F04C6008A00C600C600770100004920AC
S1130080616D2054686972640A000A037000A50057
S1130090C600C600770100004920616D20536563E6
S11300A06F6E640A0005028A00C600C600C60077A7
S11300B001000049206C6F7665205A68616E6720E4
S11300C059756E210A0000000000000000000000C5
S11300D000000000000000000000005E0000000EB0
S11300E0000E00287C287C2808547C542026100804
S11300F06400285428400000000E0000003C420028
S11301000000423C0000005438540010107C1010D1
S113011000806020001010101000006060000020BB
S113012010080400003C423C0000447E400044624D
S1130130524C00224A4A360018147E10002E4A4AB5
S113014032003C4A4A300002621A0600344A4A34F9
S1130150000C52523C00006C6C0000806C2C0000BF
S113016000102844002828282800004428100000F3
S113017004520C003C425A1C007C12127C007E4A41
S11301804A34003C424224007E42423C007E4A4AB9
S113019042007E0A0A02003C425274007E08087E35
S11301A00000427E42002040403E007E182442006F
S11301B07E404040007E0C0C7E007E0C307E003C75
S11301C042423C007E12120C003C6242BC007E1291
S11301D0324C00244A52240000027E02003E404079
S11301E03E001E60601E007E30307E006618186679
S11301F000000E700E0062524A4600007E42420029
S113020004081020000042427E0000040204004062
S113021040404000000204000030482878007E4836
S113022048300030484800003048487E0030685864
S11302301000107C12040050A8A898007E080870D2
S11302400000487A40000040807A007E1028400078
S113025000427E4000781018700078080870003062
S113026048483000F848483000304848F8007808DA
S11302700810005058682800083E484000384040A4
S113028078000038403800786060780048303048A2
S11302900018A0403800486858480000083C420054
S11302A000007E000000423C08000402040200003A
S11302B011241FBECFEFD4E0DEBFCDBF11E0A0E01C
S11302C0B1E0EEE9F6E002C005900D92A231B1076B
S11302D0D9F721E0A2E1B1E001C01D92A631B20735
S11302E0E1F70E948D010C944D030C940000CF9310
S11302F0DF93EA010E946302CE010E943C03DF9176
S1130300CF910895CF93DF93EA010E946302CE0157
S11303100E94B602DF91CF9108950E9430020E949C
S1130320C70282E091E00E942D0382E891E00E94DE
S1130330BD0185EA90E00E94A0010E94C801FFCFA0
S113034020E0863C9207C1F00097B1F09093010140
S113035080930001FC013A962591349121153105D1
S113036059F0FC0131966491FC017491AC01425F37
S11303705F4F872FF9010995089590931301809396
S1130380120180910001909101010E94A001089541
S1130390CF93DF93C0910001D091010120E0C63CCE
S11303A0D20709F45AC0209709F457C0CE01049625
S11303B0FC0125913491265C3040A9F0FC01259183
S11303C03491232B81F0FC0185919491EC010496E6
S11303D0FC0125913491265C304029F0FC012591E3
S11303E03491232B81F720911201309113012115AF
S11303F0310509F432C0FE0131966491FE01849105
S1130400AE01425F5F4FF90109952296FE01859185
S11304109491865C904009F1FE0185919491892B19
S1130420E1F0FE01C591D491FE0131966491FE0183
S11304308491AE01425F5F4FE0911201F09113018C
S113044009952296FE0185919491865C904029F04D
S1130450FE0185919491892B21F7DF91CF91089525
S113046085B7806885BF80B7806280BFEFE0F0E128
S11304708EEA808381EA80838AED808382E18083AF
S113048088EC808388EA80838FE3808385ED808392
S113049080E8808381E8808380E5808389ED8083A0
S11304A081E2808380E2808310828BED808380E30D
S11304B080838DEA8083108284EA808386EA808345
S11304C08FEA808308958093150160931401EFE00F
S11304D0F0E191E2908380838FE7808382E28083DE
S11304E0608386E080830895809114018F5F8093F8
S11304F0140180911401873010F01092140160915E
S1130500140180E00E9463020895CF938A3019F4A5
S11305100E94740229C0C0EEC80F809115018B5F40
S113052080931501809115018D3770F00E9474023B
S11305300BC0FC01E20FF31FE491EC932F5F3F4FDC
S113054025303105B1F710C08C2F90E09C01220FAB
S1130550331F220F331F820F931F20E030E08C5291
S11305609F4FAFE0B2E1E5CFCF910895CF93DF93F2
S1130570EC01FC018491882339F00E9485022196C4
S1130580FE0184918111F9CFDF91CF9108951092EA
S1130590150110921401EFE0F0E18EEA808380E20D
S11305A08083108281E2808310828FE7808382E2DD
S11305B08083108287E0808380E4808380E094E0FD
S11305C0EFE0F2E1108201970097E1F7EFE0F0E14C
S11305D081E2808310828FE7808382E280831082AD
S11305E086E080838CE780838FEA808360E080E00C
S11305F00E9463020895CF938A3019F40E94740212
S11306002AC0C0EEC80F809115018B5F809315013D
S1130610809115018D3778F00E9474020CC0FC01A2
S1130620E20FF31FE491E095EC932F5F3F4F2530E9
S11306303105A9F710C08C2F90E09C01220F331FC5
S1130640220F331F820F931F20E030E08C529F4F04
S1130650AFE0B2E1E4CFCF910895CF93DF93EC0103
S11306608881882331F021960E94FB0289918111AF
S1130670FBCFDF91CF910895CF93DF93EC01FC0181
S11306808491882339F00E94FB022196FE01849113
S11106908111F9CFDF91CF910895F894FFCF37
S113069EC60068656C6C6F20776F726C6421210ADA
S10506AE000046
S9030000FC
