S011000068656C6C6F5F6176722E7372656357
S11300000C9477010C9494010C9494010C94940135
S11300100C9494010C9494010C9494010C94940108
S11300200C9494010C9494010C9494010C949401F8
S11300300C9494010C9494010C9494010C949401E8
S11300400C9494010C9494010C9494010C949401D8
S11300500C9494010C9494010C9494010C949401C8
S11300600C9494010C9494010C9494010C949401B8
S1130070000105018200E40005015A020000312E4E
S11300803200000070000501E40005015A0200007E
S1130090312E310014050501AF00050105015A0296
S11300A000004920616D20466F757274680A000F64
S11300B0049400C900050105015A020000492061A9
S11300C06D2054686972640A000A03AF00E40005F5
S11300D00105015A0200004920616D205365636FD8
S11300E06E640A000502C9000501050182005A0276
S11300F0000049206C6F7665205A68616E6720594C
S1130100756E210A000000000000000000000000DD
S1130110000000000000000000005E0000000E006F
S11301200E00287C287C2808547C5420261008645F
S113013000285428400000000E0000003C4200004B
S113014000423C0000005438540010107C10100091
S1130150806020001010101000006060000020106B
S1130160080400003C423C0000447E4000446252CB
S11301704C00224A4A360018147E10002E4A4A3295
S1130180003C4A4A300002621A0600344A4A3400EB
S11301900C52523C00006C6C0000806C2C0000007F
S11301A010284400282828280000442810000004AF
S11301B0520C003C425A1C007C12127C007E4A4ABB
S11301C034003C424224007E42423C007E4A4A4281
S11301D0007E0A0A02003C425274007E08087E0037
S11301E000427E42002040403E007E182442007EB1
S11301F0404040007E0C0C7E007E0C307E003C4271
S1130200423C007E12120C003C6242BC007E123260
S11302104C00244A52240000027E02003E40403E2C
S1130220001E60601E007E30307E00661818660076
S1130230000E700E0062524A4600007E42420004E4
S1130240081020000042427E0000040204004040E6
S1130250404000000204000030482878007E4848EE
S1130260300030484800003048487E00306858105C
S113027000107C12040050A8A898007E08087000A2
S113028000487A40000040807A007E102840000038
S1130290427E4000781018700078080870003048DA
S11302A0483000F848483000304848F800780808DA
S11302B010005058682800083E48400038404078F4
S11302C000003840380078606078004830304800DA
S11302D018A0403800486858480000083C42000014
S11302E0007E000000423C080004020402001124C5
S11302F01FBECFEFD4E0DEBFCDBF11E0A0E0B1E080
S1130300E8E5FAE002C005900D92A032B107D9F7F2
S113031021E0A0E2B1E001C01D92A133B207E1F7F0
S11303200E9470020C942A050C940000FC01FC5EEF
S1130330808326EA2A95F1F700C08091001490E0AA
S113034036EA3A95F1F700C020910014820F911D0E
S113035026EA2A95F1F700C02091001436EA3A956E
S1130360F1F700C0820F911D63E070E00E94F30476
S1130370862F08952091001430E04FE38DE093E040
S1130380415080409040E1F700C00000809100148B
S1130390280F311D4FE38DE093E0415080409040A1
S11303A0E1F700C0000080910014280F311DABEA72
S11303B0BAEA0E940705969587952FE33DE043E04E
S11303C0215030404040E1F700C00000089585B757
S11303D0806885BF80B7806280BF86E090E00E941D
S11303E0BA018093210180E18A95F1F700C084E08D
S11303F090E00E94BA018093200180E18A95F1F790
S113040000C00895DC01ED91FC91E41BF10934E690
S11304103E9FA0013F9F500D1124552314F44158D1
S11304205F4F440F452F441F550BFC0151834083FC
S1130430DB018D919C91FC01E21BF10944E64E9F86
S1130440C0014F9F900D1124992314F481589F4F9C
S1130450880F892F881F990BDB018D939C93089536
S1130460CF93DF9300D000D0CDB7DEB786E090E025
S11304700E94960190E09A83898384E090E00E9430
S1130480960190E09C838B8320912001409121016F
S1130490BE016D5F7F4FCE0101960E940202698109
S11304A07A818B819C810F900F900F900F90DF9138
S11304B0CF910895CF93DF93EA010E94FD03CE010B
S11304C00E94E204DF91CF910895CF93DF93EA0174
S11304D00E94FD03CE010E945004DF91CF91089544
S11304E080E091E090932E0180932D010E94CA0335
S11304F00E94610480E191E00E94D3040E94E7011C
S113050085E692E00E94BF0381E694E00E94000326
S113051084EE90E00E947F030E94170384EE90E033
S11305200E947F0302E0D1E013E0C4E00E943002A5
S1130530AB019B012D5E3F4F2732310560F48734B8
S113054091051CF0D093220106C08A3B2FEF92073D
S113055014F4009322014396879760F447345105BD
S11305601CF0C093220130C04A3B5F4F1CF410932F
S1130570220121C0809122018330E9F028F48130E6
S113058041F0823079F02BC08430F1F0853029F1CC
S113059026C00E94FB020496FC01859194910E945E
S11305A07F031DC00E94FB020296FC018591949179
S11305B00E947F0314C00E94FB020696FC018591F1
S11305C094910E947F030BC00E94FB020896FC01D9
S11305D0859194910E947F0302C00E9405031092AA
S11305E022019FEF2FEF82E0915020408040E1F7FD
S11305F000C000C09BCF80910E0190910F0108951F
S113060090932601809325010895E0910E01F091C5
S11306100F0181E0E530F80749F0309739F03C9656
S113062085919491009711F0FC0109950895CF9359
S1130630DF93C0910E01D0910F0121E0C530D207A4
S113064009F45AC0209709F457C0CE010496FC015E
S11306502591349125503140A9F0FC012591349124
S1130660232B81F0FC0185919491EC010496FC010B
S1130670259134912550314029F0FC012591349184
S1130680232B81F720912701309128012115310571
S113069009F432C0FE0131966491FE018491AE01E9
S11306A0425F5F4FF90109952296FE01859194916D
S11306B08550914009F1FE0185919491892BE1F0D7
S11306C0FE01C591D491FE0131966491FE0184919D
S11306D0AE01425F5F4FE0912701F0912801099537
S11306E02296FE01859194918550914029F0FE0156
S11306F085919491892B21F7DF91CF910895CF9320
S1130700DF9321E08530920709F436C0009709F49D
S113071033C0E0910E01F0910F01F0932401E093B6
S1130720230190930F0180930E0136962591349105
S11307300696FC01859194912817390729F0E091D8
S11307402501F09126010995E0910E01F0910F0128
S11307503A96C591D4910E941703209769F040916D
S11307600E0150910F01FA0131966491FA018491BE
S1130770425F5F4FFE010995DF91CF9108959093F9
S113078028018093270180910E0190910F010E940E
S11307907F03089585B7806885BF80B7806280BF76
S11307A0EFE0F0E18EEA808381EA80838AED808342
S11307B082E1808388EC808388EA80838FE380836E
S11307C085ED808380E8808381E8808380E5808371
S11307D089ED808381E2808380E2808310828BEDC7
S11307E0808380E380838DEA8083108284EA80831F
S11307F086EA80838FEA8083089580932A01609338
S11308002901EFE0F0E191E2908380838FE7808318
S113081082E28083608386E0808308958091290149
S11308208F5F8093290180912901873010F0109205
S113083029016091290180E00E94FD030895CF936E
S11308408A3019F40E940E0429C0C0EEC80F8091AA
S11308502A018B5F80932A0180912A018D3770F0E1
S11308600E940E040BC0FC01E20FF31FE491EC9311
S11308702F5F3F4F25303105B1F710C08C2F90E02A
S11308809C01220F331F220F331F820F931F20E07E
S113089030E08D5E9E4FAFE0B2E1E5CFCF91089599
S11308A0CF93DF93EC01FC018491882339F00E94FB
S11308B01F042196FE0184918111F9CFDF91CF911C
S11308C0089510922A0110922901EFE0F0E18EEAD6
S11308D0808380E28083108281E2808310828FE7AC
S11308E0808382E28083108287E0808380E4808337
S11308F080E094E0EFE0F2E1108201970097E1F7E5
S1130900EFE0F0E181E2808310828FE7808382E26E
S11309108083108286E080838CE780838FEA8083E3
S113092060E080E00E94FD0308958D3011F08A306C
S113093019F40E940E0402C00E941F0480E090E09B
S11309400895CF938A3019F40E940E042AC0C0EE91
S1130950C80F80912A018B5F80932A0180912A011C
S11309608D3778F00E940E040CC0FC01E20FF31FD7
S1130970E491E095EC932F5F3F4F25303105A9F7C3
S113098010C08C2F90E09C01220F331F220F331FC5
S1130990820F931F20E030E08D5E9E4FAFE0B2E106
S11309A0E4CFCF910895CF93DF93EC01888188231E
S11309B031F021960E94A10489918111FBCFDF912E
S11309C0CF910895CF93DF93EC01FC0184918823A8
S11309D039F00E94A1042196FE0184918111F9CF7E
S11309E0DF91CF91089597FB072E16F4009407D05A
S11309F077FD09D00E94160507FC05D03EF49095BA
S1130A0081959F4F0895709561957F4F0895A29F9A
S1130A10B001B39FC001A39F700D811D1124911DCE
S1130A20B29F700D811D1124911D0895AA1BBB1B3B
S1130A3051E107C0AA1FBB1FA617B70710F0A61BDA
S1130A40B70B881F991F5A95A9F780959095BC01FB
S10B0A50CD010895F894FFCFD5
S1130A5800000002000000009504000000000501E9
S1130A6868656C6C6F20776F726C6421210A0000D2
S9030000FC
