S011000068656C6C6F5F6176722E7372656357
S11300000C9426010C9443010C9443010C94430179
S11300100C9443010C9443010C9443010C9443014C
S11300200C9443010C9443010C9443010C9443013C
S11300300C9443010C9443010C9443010C9443012C
S11300400C9443010C9443010C9443010C9443011C
S11300500C9443010C9443010C9443010C9443010C
S11300600C9443010C9443010C9443010C944301FC
S1130070000000000000005E0000000E000E0028DA
S11300807C287C2808547C542026100864002854BA
S113009028400000000E0000003C42000000423CEA
S11300A00000005438540010107C101000806020B0
S11300B00010101010000060600000201008040000
S11300C0003C423C0000447E40004462524C00220A
S11300D04A4A360018147E10002E4A4A32003C4A1E
S11300E04A300002621A0600344A4A34000C525262
S11300F03C00006C6C0000806C2C00000010284454
S113010000282828280000442810000004520C006D
S11301103C425A1C007C12127C007E4A4A34003C49
S1130120424224007E42423C007E4A4A42007E0A09
S11301300A02003C425274007E08087E0000427E9F
S113014042002040403E007E182442007E40404051
S1130150007E0C0C7E007E0C307E003C42423C0053
S11301607E12120C003C6242BC007E12324C00240F
S11301704A52240000027E02003E40403E001E60BF
S1130180601E007E30307E006618186600000E7017
S11301900E0062524A4600007E42420004081020CB
S11301A0000042427E00000402040040404040003F
S11301B0000204000030482878007E4848300030AF
S11301C0484800003048487E003068581000107CD1
S11301D012040050A8A898007E0808700000487A0D
S11301E040000040807A007E1028400000427E409B
S11301F00078101870007808087000304848300003
S1130200F848483000304848F80078080810005092
S113021058682800083E48400038404078000038BC
S11302204038007860607800483030480018A040BA
S11302303800486858480000083C420000007E002E
S11302400000423C080004020402000011241FBE06
S1130250CFEFD4E0DEBFCDBF11E0A0E0B1E0EEEC23
S1130260FCE002C005900D92A437B107D9F721E054
S1130270A4E7B1E001C01D92AE37B207E1F70E94D6
S113028041020C9465060C940000FC01FC5E808322
S113029026EA2A95F1F700C08091001490E036EA2E
S11302A03A95F1F700C020910014820F911D26EABF
S11302B02A95F1F700C02091001436EA3A95F1F737
S11302C000C0820F911D63E070E00E946B03862FD3
S11302D008950F931F93CF93DF9380910014082FF9
S11302E010E02FE33DE093E0215030409040E1F7EF
S11302F000C000001F928F938EE091E09F938F9334
S11303000E94A20380910014080F111D1F928F9365
S113031081E291E09F938F930E94A2032FE33DE03B
S113032083E0215030408040E1F700C0000080911C
S11303300014C82FD0E01F928F9382E391E09F9323
S11303408F930E94A20398012C0F3D1FABEABAEAD7
S11303500E947F03EC01D695C795CE0199279F9300
S11303608F9383E491E09F938F930E94A2039FE372
S11303702DE033E0915020403040E1F700C0000010
S11303808DB79EB740960FB6F8949EBF0FBE8DBF33
S11303908C2FDF91CF911F910F91089585B78068BD
S11303A085BF80B7806280BF86E090E00E946901CB
S11303B08093750180E18A95F1F700C084E090E0B4
S11303C00E9469018093740180E18A95F1F700C06D
S11303D00895DC01ED91FC91E41BF10934E63E9FA4
S11303E0A0013F9F500D1124552314F441585F4F31
S11303F0440F452F441F550BFC0151834083DB01FF
S11304008D919C91FC01E21BF10944E64E9FC001D1
S11304104F9F900D1124992314F481589F4F880FF6
S1130420892F881F990BDB018D939C930895CF939B
S1130430DF9300D000D0CDB7DEB786E090E00E9415
S1130440450190E09A83898384E090E00E9445010D
S113045090E09C838B832091740140917501BE01CF
S11304606D5F7F4FCE0101960E94E90169817A8117
S11304708B819C810F900F900F900F90DF91CF9103
S1130480089580E091E090937B0180937A010E942B
S113049064020E94EA0285E591E00E945C030E94E6
S11304A0CE01C4E6D1E00E9417029F938F937F93FD
S11304B06F93DF93CF930E94A2030F900F900F903E
S11304C00F900F900F90EFCF85B7806885BF80B7EE
S11304D0806280BFEFE0F0E18EEA808381EA80836E
S11304E08AED808382E1808388EC808388EA80833C
S11304F08FE3808385ED808380E8808381E8808337
S113050080E5808389ED808381E2808380E280833B
S113051010828BED808380E380838DEA8083108258
S113052084EA808386EA80838FEA808308958093B7
S1130530770160937601EFE0F0E191E290838083AC
S11305408FE7808382E28083608386E080830895DE
S1130550809176018F5F8093760180917601873058
S113056010F0109276016091760180E00E9497026B
S11305700895CF938A3019F40E94A80229C0C0EECE
S1130580C80F809177018B5F809377018091770109
S11305908D3770F00E94A8020BC0FC01E20FF31F1C
S11305A0E491EC932F5F3F4F25303105B1F710C034
S11305B08C2F90E09C01220F331F220F331F820FD8
S11305C0931F20E030E080599F4FAFE0B2E1E5CFC8
S11305D0CF9108951092770110927601EFE0F0E147
S11305E08EEA808380E28083108281E2808310829D
S11305F08FE7808382E28083108287E0808380E4B7
S1130600808380E094E0EFE0F2E1108201970097AC
S1130610E1F7EFE0F0E181E2808310828FE78083ED
S113062082E28083108286E080838CE780838FEA75
S1130630808360E080E00E94970208958D3011F07D
S11306408A3019F40E94A80202C00E94B90280E014
S113065090E00895CF938A3019F40E94A8022AC02A
S1130660C0EEC80F809177018B5F809377018091F2
S113067077018D3778F00E94A8020CC0FC01E20FCC
S1130680F31FE491E095EC932F5F3F4F2530310544
S1130690A9F710C08C2F90E09C01220F331F220F6A
S11306A0331F820F931F20E030E080599F4FAFE04B
S11306B0B2E1E4CFCF910895CF93DF93EC01888129
S11306C0882331F021960E942A0389918111FBCF5E
S11306D0DF91CF91089597FB072E16F4009407D06D
S11306E077FD09D00E948E0307FC05D03EF4909557
S11306F081959F4F0895709561957F4F0895A29FAE
S1130700B001B39FC001A39F700D811D1124911DE1
S1130710B29F700D811D1124911D0895AA1BBB1B4E
S113072051E107C0AA1FBB1FA617B70710F0A61BED
S1130730B70B881F991F5A95A9F780959095BC010E
S1130740CD010895A0E0B0E0E8EAF3E00C943E06A1
S1130750FE01359661917191AF0180917A0190917A
S11307607B010E94B603E2E00C945A06ACE0B0E0D0
S1130770ECEBF3E00C942E067C016B018A01FC0186
S113078017821682838181FFBDC1CE0101964C017F
S1130790F7019381F60193FD859193FF81916F0198
S11307A0882309F4ABC1853239F493FD859193FF15
S11307B081916F01853229F4B70190E00E949E0572
S11307C0E7CF512C312C20E02032A0F48B3269F099
S11307D030F4803259F0833269F420612CC08D32B8
S11307E039F0803339F4216026C02260246023C0AC
S11307F0286021C027FD27C030ED380F3A3078F447
S113080026FF06C0FAE05F9E300D1124532E13C05C
S11308108AE0389E300D1124332E20620CC08E32B3
S113082021F426FD6BC1206406C08C3611F42068C7
S113083002C0883641F4F60193FD859193FF8191BE
S11308406F018111C1CF982F9F7D9554933028F467
S11308500C5F1F4FFFE3F9830DC0833631F08337FC
S113086071F0833509F05BC022C0F801808189836F
S11308700E5F1F4F44244394512C540115C038017A
S1130880F2E06F0E711CF801A080B18026FF03C056
S1130890652D70E002C06FEF7FEFC5012C870E94C9
S11308A093052C0183012C852F77222E17C0380144
S11308B0F2E06F0E711CF801A080B18026FF03C026
S11308C0652D70E002C06FEF7FEFC5012C870E9499
S11308D088052C012C852068222E830123FC1BC053
S11308E0832D90E048165906B0F4B70180E290E0F9
S11308F00E949E053A94F4CFF50127FC859127FECA
S113090081915F01B70190E00E949E0531103A94F5
S1130910F1E04F1A51084114510471F7E5C08436CF
S113092011F0893639F5F80127FF07C0608171811C
S1130930828193810C5F1F4F08C060817181882779
S113094077FD8095982F0E5F1F4F2F76B22E97FF5D
S113095009C090958095709561957F4F8F4F9F4FFB
S11309602068B22E2AE030E0A4010E94D005A82E0F
S1130970A81844C0853729F42F7EB22E2AE030E02F
S113098025C0F22FF97FBF2E8F36C1F018F48835B9
S113099079F0B4C0803719F0883721F0AFC02F2F19
S11309A02061B22EB4FE0DC08B2D8460B82E09C018
S11309B024FF0AC09F2F9660B92E06C028E030E0BD
S11309C005C020E130E002C020E132E0F801B7FECA
S11309D007C060817181828193810C5F1F4F06C0C3
S11309E06081718180E090E00E5F1F4FA4010E943E
S11309F0D005A82EA818FB2DFF77BF2EB6FE0BC07E
S1130A002B2D2E7FA51450F4B4FE0AC0B2FC08C0EE
S1130A102B2D2E7E05C07A2C2B2D03C07A2C01C0E1
S1130A20752C24FF0DC0FE01EA0DF11D8081803379
S1130A3011F4297E09C022FF06C07394739404C084
S1130A40822F867809F0739423FD13C020FF06C01B
S1130A505A2C731418F4530C5718732C731468F429
S1130A60B70180E290E02C870E949E0573942C8548
S1130A70F5CF731410F4371801C0312C24FF12C0C1
S1130A80B70180E390E02C870E949E052C8522FF0D
S1130A9017C021FF03C088E590E002C088E790E01A
S1130AA0B7010CC0822F867859F021FD02C080E284
S1130AB001C08BE227FD8DE2B70190E00E949E0504
S1130AC0A51438F4B70180E390E00E949E055A947F
S1130AD0F7CFAA94F401EA0DF11D8081B70190E0EB
S1130AE00E949E05A110F5CF332009F451CEB70121
S1130AF080E290E00E949E053A94F6CFF701868149
S1130B00978102C08FEF9FEF2C96E2E10C944A0686
S1130B10FC010590615070400110D8F780959095C4
S1130B208E0F9F1F0895FC016150704001900110C9
S1130B30D8F7809590958E0F9F1F08950F931F935C
S1130B40CF93DF93182F092FEB018B8181FD03C015
S1130B508FEF9FEF20C082FF10C04E815F812C81F8
S1130B603D81421753077CF4E881F9819F012F5F8F
S1130B703F4F39832883108306C0E885F985812F88
S1130B800995892B29F72E813F812F5F3F4F3F83A2
S1130B902E83812F902FDF91CF911F910F91089574
S1130BA0FA01AA27283051F1203181F1E8946F939A
S1130BB06E7F6E5F7F4F8F4F9F4FAF4FB1E03ED040
S1130BC0B4E03CD0670F781F891F9A1FA11D680FDE
S1130BD0791F8A1F911DA11D6A0F711D811D911D11
S1130BE0A11D20D009F468943F912AE0269F112486
S1130BF03019305D3193DEF6CF010895462F4770EA
S1130C00405D4193B3E00FD0C9F7F6CF462F4F7044
S1130C10405D4A3318F0495D31FD4052419302D0A2
S1130C20A9F7EACFB4E0A695979587957795679548
S1130C30BA95C9F700976105710508959B01AC0148
S1130C400A2E06945795479537952795BA95C9F76F
S1130C50620F731F841F951FA01D08952F923F924A
S1130C604F925F926F927F928F929F92AF92BF92B8
S1130C70CF92DF92EF92FF920F931F93CF93DF9364
S1130C80CDB7DEB7CA1BDB0B0FB6F894DEBF0FBEC1
S1130C90CDBF09942A88398848885F846E847D840E
S1130CA08C849B84AA84B984C884DF80EE80FD8010
S1130CB00C811B81AA81B981CE0FD11D0FB6F89486
S1110CC0DEBF0FBECDBFED010895F894FFCF47
S1130CCE00000002000000001E03000000000D0AD8
S1130CDE46697273742056616C75652025640D0A1D
S1130CEE000D0A326E642056616C75652025640D04
S1130CFE0A000D0A3372642056616C7565202564F2
S1130D0E0D0A000D0A4D65616E2056616C756520E5
S1130D1E25640D0A0068656C6C6F20776F726C64C5
S1130D2E21210A0020783A2025642C20793A256462
S1070D3E200A000083
S9030000FC
