S011000068656C6C6F5F6176722E7372656357
S11300000C945C010C9479010C9479010C947901A1
S11300100C9479010C9479010C9479010C94790174
S11300200C9479010C9479010C9479010C94790164
S11300300C9479010C9479010C9479010C94790154
S11300400C9479010C9479010C9479010C94790144
S11300500C9479010C9479010C9479010C94790134
S11300600C9479010C9479010C9479010C94790124
S113007080008000D000D00000000000312E32004B
S113008070007000D000D00000000000312E31005C
S1130090AC009E00D000D0000000000033009000AF
S11300A0AC00D000D0000000000032009E009000A0
S11300B0D0008000000000000A2068656C6C6F208E
S11300C06675636B696E6720617765736F6D650034
S11300D0000000000000000000000000000000001C
S11300E00000005E0000000E000E00287C287C2822
S11300F008547C542026100864002854284000002A
S1130100000E0000003C42000000423C000000548D
S113011038540010107C1010008060200010101063
S1130120100000606000002010080400003C423C05
S11301300000447E40004462524C00224A4A360089
S113014018147E10002E4A4A32003C4A4A300002FB
S1130150621A0600344A4A34000C52523C00006CC5
S11301606C0000806C2C0000001028440028282813
S1130170280000442810000004520C003C425A1C81
S1130180007C12127C007E4A4A34003C4242240025
S11301907E42423C007E4A4A42007E0A0A02003CF9
S11301A0425274007E08087E0000427E42002040D5
S11301B0403E007E182442007E404040007E0C0CED
S11301C07E007E0C307E003C42423C007E12120CCB
S11301D0003C6242BC007E12324C00244A5224008D
S11301E000027E02003E40403E001E60601E007E13
S11301F030307E006618186600000E700E006252E1
S11302004A4600007E424200040810200000424298
S11302107E0000040204004040404000000204004C
S11302200030482878007E484830003048480000B4
S11302303048487E003068581000107C120400508A
S1130240A8A898007E0808700000487A4000004082
S1130250807A007E1028400000427E40007810180A
S1130260700078080870003048483000F84848307A
S113027000304848F80078080810005058682800F2
S1130280083E484000384040780000384038007844
S113029060607800483030480018A0403800486852
S11302A058480000083C420000007E000000423C28
S11302B0080004020402000011241FBECFEFD4E0A2
S11302C0DEBFCDBF11E0A0E0B1E0E2E2F5E002C0A4
S11302D005900D92A231B107D9F721E0A2E1B1E076
S11302E001C01D92A631B207E1F70E947B010C9474
S11302F08F020C9400000E94B5010E945B0282E010
S113030091E00E943B028AE492E00E94AA018CEAF6
S113031090E00E948C01FFCF20E0803D9207C9F05D
S11303200097B9F09093010180930001E0911201CC
S1130330F0911301309711F00C960995E0910001AA
S1130340F0910101389685919491009711F0FC0188
S113035009950895909313018093120180910001EF
S1130360909101010E948C01089585B7806885BF32
S113037080B7806280BFEFE0F0E18EEA808381EA9B
S113038080838AED808382E1808388EC808388EA9D
S113039080838FE3808385ED808380E8808381E898
S11303A0808380E5808389ED808381E2808380E29D
S11303B0808310828BED808380E380838DEA808349
S11303C0108284EA808386EA80838FEA808308959A
S11303D08093150160931401EFE0F0E191E29083C2
S11303E080838FE7808382E28083608386E08083DA
S11303F00895809114018F5F8093140180911401FA
S1130400873010F0109214016091140180E00E9472
S1130410E8010895CF938A3019F40E94F90129C0A4
S1130420C0EEC80F809115018B5F809315018091F8
S113043015018D3770F00E94F9010BC0FC01E20F29
S1130440F31FE491EC932F5F3F4F25303105B1F753
S113045010C08C2F90E09C01220F331F220F331FFA
S1130460820F931F20E030E084529F4FAFE0B2E14F
S1130470E5CFCF910895CF93DF93EC018881882352
S113048031F021960E940A0289918111FBCFDF91FC
S1130490CF910895CF93DF93EC01FC0184918823DD
S11304A039F00E940A022196FE0184918111F9CF4C
S11304B0DF91CF9108951092150110921401EFE08D
S11304C0F0E18EEA808380E28083108281E280837F
S11304D010828FE7808382E28083108287E08083AA
S11304E080E4808380E094E0EFE0F2E11082019701
S11304F00097E1F7EFE0F0E181E2808310828FE77B
S1130500808382E28083108286E080838CE780830C
S11305108FEA808360E080E00E94E8010895F89407
S1050520FFCF07
S1130522D00068656C6C6F20776F726C6421210A4D
S10505320000C3
S9030000FC
